{
  "_format": "hh-sol-artifact-1",
  "contractName": "ByteStorage",
  "sourceName": "contracts/byteStorage.sol",
  "abi": [
    {
      "inputs": [],
      "stateMutability": "nonpayable",
      "type": "constructor"
    },
    {
      "inputs": [
        {
          "internalType": "string",
          "name": "_fileName",
          "type": "string"
        },
        {
          "internalType": "uint32",
          "name": "_fileArrayIndex",
          "type": "uint32"
        },
        {
          "internalType": "uint32",
          "name": "_fileArrayBegin",
          "type": "uint32"
        },
        {
          "internalType": "uint32",
          "name": "_fileArrayEnd",
          "type": "uint32"
        }
      ],
      "name": "getFileArray",
      "outputs": [
        {
          "internalType": "bytes32[]",
          "name": "",
          "type": "bytes32[]"
        }
      ],
      "stateMutability": "view",
      "type": "function"
    },
    {
      "inputs": [
        {
          "internalType": "string",
          "name": "_fileName",
          "type": "string"
        }
      ],
      "name": "getFileInfo",
      "outputs": [
        {
          "internalType": "string",
          "name": "",
          "type": "string"
        },
        {
          "internalType": "string",
          "name": "",
          "type": "string"
        },
        {
          "internalType": "uint32",
          "name": "",
          "type": "uint32"
        },
        {
          "internalType": "uint32",
          "name": "",
          "type": "uint32"
        }
      ],
      "stateMutability": "view",
      "type": "function"
    },
    {
      "inputs": [
        {
          "internalType": "string",
          "name": "_fileName",
          "type": "string"
        },
        {
          "internalType": "uint32",
          "name": "_fileArrayIndex",
          "type": "uint32"
        },
        {
          "internalType": "uint32",
          "name": "_fileArrayLength",
          "type": "uint32"
        }
      ],
      "name": "newFileArray",
      "outputs": [],
      "stateMutability": "nonpayable",
      "type": "function"
    },
    {
      "inputs": [
        {
          "internalType": "string",
          "name": "_fileName",
          "type": "string"
        },
        {
          "internalType": "string",
          "name": "_fileExtension",
          "type": "string"
        },
        {
          "internalType": "uint32",
          "name": "_fileLength",
          "type": "uint32"
        }
      ],
      "name": "newFileTemplate",
      "outputs": [],
      "stateMutability": "nonpayable",
      "type": "function"
    },
    {
      "inputs": [
        {
          "internalType": "string",
          "name": "_fileName",
          "type": "string"
        },
        {
          "internalType": "uint32",
          "name": "_fileArrayIndex",
          "type": "uint32"
        },
        {
          "internalType": "uint32",
          "name": "_fileArrayBegin",
          "type": "uint32"
        },
        {
          "internalType": "uint32",
          "name": "_fileArrayEnd",
          "type": "uint32"
        },
        {
          "internalType": "bytes32[]",
          "name": "_fileArray",
          "type": "bytes32[]"
        }
      ],
      "name": "setFileArray",
      "outputs": [],
      "stateMutability": "nonpayable",
      "type": "function"
    }
  ],
  "bytecode": "0x608060405234801561001057600080fd5b506117d7806100206000396000f3fe608060405234801561001057600080fd5b50600436106100575760003560e01c8063036948d61461005c5780630cc9c17b146100785780638ac3421d146100ab5780638f4d1ba6146100c7578063df5d4b40146100e3575b600080fd5b6100766004803603810190610071919061105b565b610113565b005b610092600480360381019061008d91906110e6565b610338565b6040516100a294939291906111c6565b60405180910390f35b6100c560048036038101906100c09190611317565b610642565b005b6100e160048036038101906100dc91906113ca565b6107f1565b005b6100fd60048036038101906100f89190611439565b610a59565b60405161010a919061157a565b60405180910390f35b6000808054905011156102005760005b6000805490508110156101fe576101e0600082815481106101475761014661159c565b5b90600052602060002001805461015c906115fa565b80601f0160208091040260200160405190810160405280929190818152602001828054610188906115fa565b80156101d55780601f106101aa576101008083540402835291602001916101d5565b820191906000526020600020905b8154815290600101906020018083116101b857829003601f168201915b505050505085610cba565b156101eb5750610333565b80806101f690611664565b915050610123565b505b60008390806001815401808255809150506001900390600052602060002001600090919091909150908051906020019061023b929190610d13565b508060028460405161024d91906116e8565b908152602001604051809103902060006101000a81548163ffffffff021916908363ffffffff1602179055508160048460405161028a91906116e8565b908152602001604051809103902090805190602001906102ab929190610d13565b508063ffffffff1667ffffffffffffffff8111156102cc576102cb610ef4565b5b6040519080825280602002602001820160405280156102ff57816020015b60608152602001906001900390816102ea5790505b5060018460405161031091906116e8565b90815260200160405180910390209080519060200190610331929190610d99565b505b505050565b6060806000806000808054905011156105e55760005b6000805490508110156105e35761040b600082815481106103725761037161159c565b5b906000526020600020018054610387906115fa565b80601f01602080910402602001604051908101604052809291908181526020018280546103b3906115fa565b80156104005780601f106103d557610100808354040283529160200191610400565b820191906000526020600020905b8154815290600101906020018083116103e357829003601f168201915b505050505087610cba565b156105d057600081815481106104245761042361159c565b5b9060005260206000200160048760405161043e91906116e8565b908152602001604051809103902060028860405161045c91906116e8565b908152602001604051809103902060009054906101000a900463ffffffff1660038960405161048b91906116e8565b908152602001604051809103902060009054906101000a900463ffffffff168380546104b6906115fa565b80601f01602080910402602001604051908101604052809291908181526020018280546104e2906115fa565b801561052f5780601f106105045761010080835404028352916020019161052f565b820191906000526020600020905b81548152906001019060200180831161051257829003601f168201915b50505050509350828054610542906115fa565b80601f016020809104026020016040519081016040528092919081815260200182805461056e906115fa565b80156105bb5780601f10610590576101008083540402835291602001916105bb565b820191906000526020600020905b81548152906001019060200180831161059e57829003601f168201915b5050505050925094509450945094505061063b565b80806105db90611664565b91505061034e565b505b6000806040518060400160405280601b81526020017f4e6f2046696c6520466f756e6420666f722074686174204e616d650000000000815250919060405180602001604052806000815250919093509350935093505b9193509193565b6000808054905011156107e95760005b6000805490508110156107e75761070f600082815481106106765761067561159c565b5b90600052602060002001805461068b906115fa565b80601f01602080910402602001604051908101604052809291908181526020018280546106b7906115fa565b80156107045780601f106106d957610100808354040283529160200191610704565b820191906000526020600020905b8154815290600101906020018083116106e757829003601f168201915b505050505087610cba565b156107d45760008463ffffffff1690505b8363ffffffff168110156107cd57828563ffffffff168261074191906116ff565b815181106107525761075161159c565b5b602002602001015160018860405161076a91906116e8565b90815260200160405180910390208763ffffffff16815481106107905761078f61159c565b5b9060005260206000200182815481106107ac576107ab61159c565b5b906000526020600020018190555080806107c590611664565b915050610720565b50506107ea565b80806107df90611664565b915050610652565b505b5b5050505050565b600080805490501115610a535760005b600080549050811015610a51576108be600082815481106108255761082461159c565b5b90600052602060002001805461083a906115fa565b80601f0160208091040260200160405190810160405280929190818152602001828054610866906115fa565b80156108b35780601f10610888576101008083540402835291602001916108b3565b820191906000526020600020905b81548152906001019060200180831161089657829003601f168201915b505050505085610cba565b15610a3e576002846040516108d391906116e8565b908152602001604051809103902060009054906101000a900463ffffffff1663ffffffff168363ffffffff161061090a5750610a54565b60028460405161091a91906116e8565b908152602001604051809103902060009054906101000a900463ffffffff1663ffffffff1660018461094c9190611733565b63ffffffff1603610995578160038560405161096891906116e8565b908152602001604051809103902060006101000a81548163ffffffff021916908363ffffffff1602179055505b8163ffffffff1667ffffffffffffffff8111156109b5576109b4610ef4565b5b6040519080825280602002602001820160405280156109e35781602001602082028036833780820191505090505b506001856040516109f491906116e8565b90815260200160405180910390208463ffffffff1681548110610a1a57610a1961159c565b5b906000526020600020019080519060200190610a37929190610df9565b5050610a54565b8080610a4990611664565b915050610801565b505b5b505050565b6060600080805490501115610c655760005b600080549050811015610c6357610b2860008281548110610a8f57610a8e61159c565b5b906000526020600020018054610aa4906115fa565b80601f0160208091040260200160405190810160405280929190818152602001828054610ad0906115fa565b8015610b1d5780601f10610af257610100808354040283529160200191610b1d565b820191906000526020600020905b815481529060010190602001808311610b0057829003601f168201915b505050505087610cba565b15610c505760008484610b3b919061176d565b63ffffffff1667ffffffffffffffff811115610b5a57610b59610ef4565b5b604051908082528060200260200182016040528015610b885781602001602082028036833780820191505090505b50905060008563ffffffff1690505b8463ffffffff16811015610c4557600188604051610bb591906116e8565b90815260200160405180910390208763ffffffff1681548110610bdb57610bda61159c565b5b906000526020600020018181548110610bf757610bf661159c565b5b9060005260206000200154828763ffffffff1683610c1591906116ff565b81518110610c2657610c2561159c565b5b6020026020010181815250508080610c3d90611664565b915050610b97565b508092505050610cb2565b8080610c5b90611664565b915050610a6b565b505b600067ffffffffffffffff811115610c8057610c7f610ef4565b5b604051908082528060200260200182016040528015610cae5781602001602082028036833780820191505090505b5090505b949350505050565b600081604051602001610ccd91906116e8565b6040516020818303038152906040528051906020012083604051602001610cf491906116e8565b6040516020818303038152906040528051906020012014905092915050565b828054610d1f906115fa565b90600052602060002090601f016020900481019282610d415760008555610d88565b82601f10610d5a57805160ff1916838001178555610d88565b82800160010185558215610d88579182015b82811115610d87578251825591602001919060010190610d6c565b5b509050610d959190610e46565b5090565b828054828255906000526020600020908101928215610de8579160200282015b82811115610de7578251829080519060200190610dd7929190610df9565b5091602001919060010190610db9565b5b509050610df59190610e63565b5090565b828054828255906000526020600020908101928215610e35579160200282015b82811115610e34578251825591602001919060010190610e19565b5b509050610e429190610e87565b5090565b5b80821115610e5f576000816000905550600101610e47565b5090565b5b80821115610e835760008181610e7a9190610ea4565b50600101610e64565b5090565b5b80821115610ea0576000816000905550600101610e88565b5090565b5080546000825590600052602060002090810190610ec29190610e87565b50565b6000604051905090565b600080fd5b600080fd5b600080fd5b600080fd5b6000601f19601f8301169050919050565b7f4e487b7100000000000000000000000000000000000000000000000000000000600052604160045260246000fd5b610f2c82610ee3565b810181811067ffffffffffffffff82111715610f4b57610f4a610ef4565b5b80604052505050565b6000610f5e610ec5565b9050610f6a8282610f23565b919050565b600067ffffffffffffffff821115610f8a57610f89610ef4565b5b610f9382610ee3565b9050602081019050919050565b82818337600083830152505050565b6000610fc2610fbd84610f6f565b610f54565b905082815260208101848484011115610fde57610fdd610ede565b5b610fe9848285610fa0565b509392505050565b600082601f83011261100657611005610ed9565b5b8135611016848260208601610faf565b91505092915050565b600063ffffffff82169050919050565b6110388161101f565b811461104357600080fd5b50565b6000813590506110558161102f565b92915050565b60008060006060848603121561107457611073610ecf565b5b600084013567ffffffffffffffff81111561109257611091610ed4565b5b61109e86828701610ff1565b935050602084013567ffffffffffffffff8111156110bf576110be610ed4565b5b6110cb86828701610ff1565b92505060406110dc86828701611046565b9150509250925092565b6000602082840312156110fc576110fb610ecf565b5b600082013567ffffffffffffffff81111561111a57611119610ed4565b5b61112684828501610ff1565b91505092915050565b600081519050919050565b600082825260208201905092915050565b60005b8381101561116957808201518184015260208101905061114e565b83811115611178576000848401525b50505050565b60006111898261112f565b611193818561113a565b93506111a381856020860161114b565b6111ac81610ee3565b840191505092915050565b6111c08161101f565b82525050565b600060808201905081810360008301526111e0818761117e565b905081810360208301526111f4818661117e565b905061120360408301856111b7565b61121060608301846111b7565b95945050505050565b600067ffffffffffffffff82111561123457611233610ef4565b5b602082029050602081019050919050565b600080fd5b6000819050919050565b61125d8161124a565b811461126857600080fd5b50565b60008135905061127a81611254565b92915050565b600061129361128e84611219565b610f54565b905080838252602082019050602084028301858111156112b6576112b5611245565b5b835b818110156112df57806112cb888261126b565b8452602084019350506020810190506112b8565b5050509392505050565b600082601f8301126112fe576112fd610ed9565b5b813561130e848260208601611280565b91505092915050565b600080600080600060a0868803121561133357611332610ecf565b5b600086013567ffffffffffffffff81111561135157611350610ed4565b5b61135d88828901610ff1565b955050602061136e88828901611046565b945050604061137f88828901611046565b935050606061139088828901611046565b925050608086013567ffffffffffffffff8111156113b1576113b0610ed4565b5b6113bd888289016112e9565b9150509295509295909350565b6000806000606084860312156113e3576113e2610ecf565b5b600084013567ffffffffffffffff81111561140157611400610ed4565b5b61140d86828701610ff1565b935050602061141e86828701611046565b925050604061142f86828701611046565b9150509250925092565b6000806000806080858703121561145357611452610ecf565b5b600085013567ffffffffffffffff81111561147157611470610ed4565b5b61147d87828801610ff1565b945050602061148e87828801611046565b935050604061149f87828801611046565b92505060606114b087828801611046565b91505092959194509250565b600081519050919050565b600082825260208201905092915050565b6000819050602082019050919050565b6114f18161124a565b82525050565b600061150383836114e8565b60208301905092915050565b6000602082019050919050565b6000611527826114bc565b61153181856114c7565b935061153c836114d8565b8060005b8381101561156d57815161155488826114f7565b975061155f8361150f565b925050600181019050611540565b5085935050505092915050565b60006020820190508181036000830152611594818461151c565b905092915050565b7f4e487b7100000000000000000000000000000000000000000000000000000000600052603260045260246000fd5b7f4e487b7100000000000000000000000000000000000000000000000000000000600052602260045260246000fd5b6000600282049050600182168061161257607f821691505b602082108103611625576116246115cb565b5b50919050565b7f4e487b7100000000000000000000000000000000000000000000000000000000600052601160045260246000fd5b6000819050919050565b600061166f8261165a565b91507fffffffffffffffffffffffffffffffffffffffffffffffffffffffffffffffff82036116a1576116a061162b565b5b600182019050919050565b600081905092915050565b60006116c28261112f565b6116cc81856116ac565b93506116dc81856020860161114b565b80840191505092915050565b60006116f482846116b7565b915081905092915050565b600061170a8261165a565b91506117158361165a565b9250828210156117285761172761162b565b5b828203905092915050565b600061173e8261101f565b91506117498361101f565b92508263ffffffff038211156117625761176161162b565b5b828201905092915050565b60006117788261101f565b91506117838361101f565b9250828210156117965761179561162b565b5b82820390509291505056fea2646970667358221220eab26832df1ed0cb6cc4d223128d3efdec55069c18138afad90a2dce013ef94264736f6c634300080d0033",
  "linkReferences": {},
  "deployedLinkReferences": {}
}