{
  "contracts/byteStorage.sol": {
    "ByteStorage": {
      "abi": [
        {
          "inputs": [],
          "stateMutability": "nonpayable",
          "type": "constructor"
        },
        {
          "inputs": [
            {
              "internalType": "string",
              "name": "_fileName",
              "type": "string"
            },
            {
              "internalType": "uint32",
              "name": "_fileArrayIndex",
              "type": "uint32"
            },
            {
              "internalType": "uint32",
              "name": "_fileArrayBegin",
              "type": "uint32"
            },
            {
              "internalType": "uint32",
              "name": "_fileArrayEnd",
              "type": "uint32"
            }
          ],
          "name": "getFileArray",
          "outputs": [
            {
              "internalType": "bytes32[]",
              "name": "",
              "type": "bytes32[]"
            }
          ],
          "stateMutability": "view",
          "type": "function"
        },
        {
          "inputs": [
            {
              "internalType": "string",
              "name": "_fileName",
              "type": "string"
            }
          ],
          "name": "getFileInfo",
          "outputs": [
            {
              "internalType": "string",
              "name": "",
              "type": "string"
            },
            {
              "internalType": "string",
              "name": "",
              "type": "string"
            },
            {
              "internalType": "uint32",
              "name": "",
              "type": "uint32"
            },
            {
              "internalType": "uint32",
              "name": "",
              "type": "uint32"
            }
          ],
          "stateMutability": "view",
          "type": "function"
        },
        {
          "inputs": [
            {
              "internalType": "string",
              "name": "_fileName",
              "type": "string"
            },
            {
              "internalType": "uint32",
              "name": "_fileArrayIndex",
              "type": "uint32"
            },
            {
              "internalType": "uint32",
              "name": "_fileArrayLength",
              "type": "uint32"
            }
          ],
          "name": "newFileArray",
          "outputs": [],
          "stateMutability": "nonpayable",
          "type": "function"
        },
        {
          "inputs": [
            {
              "internalType": "string",
              "name": "_fileName",
              "type": "string"
            },
            {
              "internalType": "string",
              "name": "_fileExtension",
              "type": "string"
            },
            {
              "internalType": "uint32",
              "name": "_fileLength",
              "type": "uint32"
            }
          ],
          "name": "newFileTemplate",
          "outputs": [],
          "stateMutability": "nonpayable",
          "type": "function"
        },
        {
          "inputs": [
            {
              "internalType": "string",
              "name": "_fileName",
              "type": "string"
            },
            {
              "internalType": "uint32",
              "name": "_fileArrayIndex",
              "type": "uint32"
            },
            {
              "internalType": "uint32",
              "name": "_fileArrayBegin",
              "type": "uint32"
            },
            {
              "internalType": "uint32",
              "name": "_fileArrayEnd",
              "type": "uint32"
            },
            {
              "internalType": "bytes32[]",
              "name": "_fileArray",
              "type": "bytes32[]"
            }
          ],
          "name": "setFileArray",
          "outputs": [],
          "stateMutability": "nonpayable",
          "type": "function"
        }
      ],
      "evm": {
        "bytecode": {
          "linkReferences": {},
          "object": "608060405234801561001057600080fd5b506117d7806100206000396000f3fe608060405234801561001057600080fd5b50600436106100575760003560e01c8063036948d61461005c5780630cc9c17b146100785780638ac3421d146100ab5780638f4d1ba6146100c7578063df5d4b40146100e3575b600080fd5b6100766004803603810190610071919061105b565b610113565b005b610092600480360381019061008d91906110e6565b610338565b6040516100a294939291906111c6565b60405180910390f35b6100c560048036038101906100c09190611317565b610642565b005b6100e160048036038101906100dc91906113ca565b6107f1565b005b6100fd60048036038101906100f89190611439565b610a59565b60405161010a919061157a565b60405180910390f35b6000808054905011156102005760005b6000805490508110156101fe576101e0600082815481106101475761014661159c565b5b90600052602060002001805461015c906115fa565b80601f0160208091040260200160405190810160405280929190818152602001828054610188906115fa565b80156101d55780601f106101aa576101008083540402835291602001916101d5565b820191906000526020600020905b8154815290600101906020018083116101b857829003601f168201915b505050505085610cba565b156101eb5750610333565b80806101f690611664565b915050610123565b505b60008390806001815401808255809150506001900390600052602060002001600090919091909150908051906020019061023b929190610d13565b508060028460405161024d91906116e8565b908152602001604051809103902060006101000a81548163ffffffff021916908363ffffffff1602179055508160048460405161028a91906116e8565b908152602001604051809103902090805190602001906102ab929190610d13565b508063ffffffff1667ffffffffffffffff8111156102cc576102cb610ef4565b5b6040519080825280602002602001820160405280156102ff57816020015b60608152602001906001900390816102ea5790505b5060018460405161031091906116e8565b90815260200160405180910390209080519060200190610331929190610d99565b505b505050565b6060806000806000808054905011156105e55760005b6000805490508110156105e35761040b600082815481106103725761037161159c565b5b906000526020600020018054610387906115fa565b80601f01602080910402602001604051908101604052809291908181526020018280546103b3906115fa565b80156104005780601f106103d557610100808354040283529160200191610400565b820191906000526020600020905b8154815290600101906020018083116103e357829003601f168201915b505050505087610cba565b156105d057600081815481106104245761042361159c565b5b9060005260206000200160048760405161043e91906116e8565b908152602001604051809103902060028860405161045c91906116e8565b908152602001604051809103902060009054906101000a900463ffffffff1660038960405161048b91906116e8565b908152602001604051809103902060009054906101000a900463ffffffff168380546104b6906115fa565b80601f01602080910402602001604051908101604052809291908181526020018280546104e2906115fa565b801561052f5780601f106105045761010080835404028352916020019161052f565b820191906000526020600020905b81548152906001019060200180831161051257829003601f168201915b50505050509350828054610542906115fa565b80601f016020809104026020016040519081016040528092919081815260200182805461056e906115fa565b80156105bb5780601f10610590576101008083540402835291602001916105bb565b820191906000526020600020905b81548152906001019060200180831161059e57829003601f168201915b5050505050925094509450945094505061063b565b80806105db90611664565b91505061034e565b505b6000806040518060400160405280601b81526020017f4e6f2046696c6520466f756e6420666f722074686174204e616d650000000000815250919060405180602001604052806000815250919093509350935093505b9193509193565b6000808054905011156107e95760005b6000805490508110156107e75761070f600082815481106106765761067561159c565b5b90600052602060002001805461068b906115fa565b80601f01602080910402602001604051908101604052809291908181526020018280546106b7906115fa565b80156107045780601f106106d957610100808354040283529160200191610704565b820191906000526020600020905b8154815290600101906020018083116106e757829003601f168201915b505050505087610cba565b156107d45760008463ffffffff1690505b8363ffffffff168110156107cd57828563ffffffff168261074191906116ff565b815181106107525761075161159c565b5b602002602001015160018860405161076a91906116e8565b90815260200160405180910390208763ffffffff16815481106107905761078f61159c565b5b9060005260206000200182815481106107ac576107ab61159c565b5b906000526020600020018190555080806107c590611664565b915050610720565b50506107ea565b80806107df90611664565b915050610652565b505b5b5050505050565b600080805490501115610a535760005b600080549050811015610a51576108be600082815481106108255761082461159c565b5b90600052602060002001805461083a906115fa565b80601f0160208091040260200160405190810160405280929190818152602001828054610866906115fa565b80156108b35780601f10610888576101008083540402835291602001916108b3565b820191906000526020600020905b81548152906001019060200180831161089657829003601f168201915b505050505085610cba565b15610a3e576002846040516108d391906116e8565b908152602001604051809103902060009054906101000a900463ffffffff1663ffffffff168363ffffffff161061090a5750610a54565b60028460405161091a91906116e8565b908152602001604051809103902060009054906101000a900463ffffffff1663ffffffff1660018461094c9190611733565b63ffffffff1603610995578160038560405161096891906116e8565b908152602001604051809103902060006101000a81548163ffffffff021916908363ffffffff1602179055505b8163ffffffff1667ffffffffffffffff8111156109b5576109b4610ef4565b5b6040519080825280602002602001820160405280156109e35781602001602082028036833780820191505090505b506001856040516109f491906116e8565b90815260200160405180910390208463ffffffff1681548110610a1a57610a1961159c565b5b906000526020600020019080519060200190610a37929190610df9565b5050610a54565b8080610a4990611664565b915050610801565b505b5b505050565b6060600080805490501115610c655760005b600080549050811015610c6357610b2860008281548110610a8f57610a8e61159c565b5b906000526020600020018054610aa4906115fa565b80601f0160208091040260200160405190810160405280929190818152602001828054610ad0906115fa565b8015610b1d5780601f10610af257610100808354040283529160200191610b1d565b820191906000526020600020905b815481529060010190602001808311610b0057829003601f168201915b505050505087610cba565b15610c505760008484610b3b919061176d565b63ffffffff1667ffffffffffffffff811115610b5a57610b59610ef4565b5b604051908082528060200260200182016040528015610b885781602001602082028036833780820191505090505b50905060008563ffffffff1690505b8463ffffffff16811015610c4557600188604051610bb591906116e8565b90815260200160405180910390208763ffffffff1681548110610bdb57610bda61159c565b5b906000526020600020018181548110610bf757610bf661159c565b5b9060005260206000200154828763ffffffff1683610c1591906116ff565b81518110610c2657610c2561159c565b5b6020026020010181815250508080610c3d90611664565b915050610b97565b508092505050610cb2565b8080610c5b90611664565b915050610a6b565b505b600067ffffffffffffffff811115610c8057610c7f610ef4565b5b604051908082528060200260200182016040528015610cae5781602001602082028036833780820191505090505b5090505b949350505050565b600081604051602001610ccd91906116e8565b6040516020818303038152906040528051906020012083604051602001610cf491906116e8565b6040516020818303038152906040528051906020012014905092915050565b828054610d1f906115fa565b90600052602060002090601f016020900481019282610d415760008555610d88565b82601f10610d5a57805160ff1916838001178555610d88565b82800160010185558215610d88579182015b82811115610d87578251825591602001919060010190610d6c565b5b509050610d959190610e46565b5090565b828054828255906000526020600020908101928215610de8579160200282015b82811115610de7578251829080519060200190610dd7929190610df9565b5091602001919060010190610db9565b5b509050610df59190610e63565b5090565b828054828255906000526020600020908101928215610e35579160200282015b82811115610e34578251825591602001919060010190610e19565b5b509050610e429190610e87565b5090565b5b80821115610e5f576000816000905550600101610e47565b5090565b5b80821115610e835760008181610e7a9190610ea4565b50600101610e64565b5090565b5b80821115610ea0576000816000905550600101610e88565b5090565b5080546000825590600052602060002090810190610ec29190610e87565b50565b6000604051905090565b600080fd5b600080fd5b600080fd5b600080fd5b6000601f19601f8301169050919050565b7f4e487b7100000000000000000000000000000000000000000000000000000000600052604160045260246000fd5b610f2c82610ee3565b810181811067ffffffffffffffff82111715610f4b57610f4a610ef4565b5b80604052505050565b6000610f5e610ec5565b9050610f6a8282610f23565b919050565b600067ffffffffffffffff821115610f8a57610f89610ef4565b5b610f9382610ee3565b9050602081019050919050565b82818337600083830152505050565b6000610fc2610fbd84610f6f565b610f54565b905082815260208101848484011115610fde57610fdd610ede565b5b610fe9848285610fa0565b509392505050565b600082601f83011261100657611005610ed9565b5b8135611016848260208601610faf565b91505092915050565b600063ffffffff82169050919050565b6110388161101f565b811461104357600080fd5b50565b6000813590506110558161102f565b92915050565b60008060006060848603121561107457611073610ecf565b5b600084013567ffffffffffffffff81111561109257611091610ed4565b5b61109e86828701610ff1565b935050602084013567ffffffffffffffff8111156110bf576110be610ed4565b5b6110cb86828701610ff1565b92505060406110dc86828701611046565b9150509250925092565b6000602082840312156110fc576110fb610ecf565b5b600082013567ffffffffffffffff81111561111a57611119610ed4565b5b61112684828501610ff1565b91505092915050565b600081519050919050565b600082825260208201905092915050565b60005b8381101561116957808201518184015260208101905061114e565b83811115611178576000848401525b50505050565b60006111898261112f565b611193818561113a565b93506111a381856020860161114b565b6111ac81610ee3565b840191505092915050565b6111c08161101f565b82525050565b600060808201905081810360008301526111e0818761117e565b905081810360208301526111f4818661117e565b905061120360408301856111b7565b61121060608301846111b7565b95945050505050565b600067ffffffffffffffff82111561123457611233610ef4565b5b602082029050602081019050919050565b600080fd5b6000819050919050565b61125d8161124a565b811461126857600080fd5b50565b60008135905061127a81611254565b92915050565b600061129361128e84611219565b610f54565b905080838252602082019050602084028301858111156112b6576112b5611245565b5b835b818110156112df57806112cb888261126b565b8452602084019350506020810190506112b8565b5050509392505050565b600082601f8301126112fe576112fd610ed9565b5b813561130e848260208601611280565b91505092915050565b600080600080600060a0868803121561133357611332610ecf565b5b600086013567ffffffffffffffff81111561135157611350610ed4565b5b61135d88828901610ff1565b955050602061136e88828901611046565b945050604061137f88828901611046565b935050606061139088828901611046565b925050608086013567ffffffffffffffff8111156113b1576113b0610ed4565b5b6113bd888289016112e9565b9150509295509295909350565b6000806000606084860312156113e3576113e2610ecf565b5b600084013567ffffffffffffffff81111561140157611400610ed4565b5b61140d86828701610ff1565b935050602061141e86828701611046565b925050604061142f86828701611046565b9150509250925092565b6000806000806080858703121561145357611452610ecf565b5b600085013567ffffffffffffffff81111561147157611470610ed4565b5b61147d87828801610ff1565b945050602061148e87828801611046565b935050604061149f87828801611046565b92505060606114b087828801611046565b91505092959194509250565b600081519050919050565b600082825260208201905092915050565b6000819050602082019050919050565b6114f18161124a565b82525050565b600061150383836114e8565b60208301905092915050565b6000602082019050919050565b6000611527826114bc565b61153181856114c7565b935061153c836114d8565b8060005b8381101561156d57815161155488826114f7565b975061155f8361150f565b925050600181019050611540565b5085935050505092915050565b60006020820190508181036000830152611594818461151c565b905092915050565b7f4e487b7100000000000000000000000000000000000000000000000000000000600052603260045260246000fd5b7f4e487b7100000000000000000000000000000000000000000000000000000000600052602260045260246000fd5b6000600282049050600182168061161257607f821691505b602082108103611625576116246115cb565b5b50919050565b7f4e487b7100000000000000000000000000000000000000000000000000000000600052601160045260246000fd5b6000819050919050565b600061166f8261165a565b91507fffffffffffffffffffffffffffffffffffffffffffffffffffffffffffffffff82036116a1576116a061162b565b5b600182019050919050565b600081905092915050565b60006116c28261112f565b6116cc81856116ac565b93506116dc81856020860161114b565b80840191505092915050565b60006116f482846116b7565b915081905092915050565b600061170a8261165a565b91506117158361165a565b9250828210156117285761172761162b565b5b828203905092915050565b600061173e8261101f565b91506117498361101f565b92508263ffffffff038211156117625761176161162b565b5b828201905092915050565b60006117788261101f565b91506117838361101f565b9250828210156117965761179561162b565b5b82820390509291505056fea2646970667358221220eab26832df1ed0cb6cc4d223128d3efdec55069c18138afad90a2dce013ef94264736f6c634300080d0033",
          "opcodes": "PUSH1 0x80 PUSH1 0x40 MSTORE CALLVALUE DUP1 ISZERO PUSH2 0x10 JUMPI PUSH1 0x0 DUP1 REVERT JUMPDEST POP PUSH2 0x17D7 DUP1 PUSH2 0x20 PUSH1 0x0 CODECOPY PUSH1 0x0 RETURN INVALID PUSH1 0x80 PUSH1 0x40 MSTORE CALLVALUE DUP1 ISZERO PUSH2 0x10 JUMPI PUSH1 0x0 DUP1 REVERT JUMPDEST POP PUSH1 0x4 CALLDATASIZE LT PUSH2 0x57 JUMPI PUSH1 0x0 CALLDATALOAD PUSH1 0xE0 SHR DUP1 PUSH4 0x36948D6 EQ PUSH2 0x5C JUMPI DUP1 PUSH4 0xCC9C17B EQ PUSH2 0x78 JUMPI DUP1 PUSH4 0x8AC3421D EQ PUSH2 0xAB JUMPI DUP1 PUSH4 0x8F4D1BA6 EQ PUSH2 0xC7 JUMPI DUP1 PUSH4 0xDF5D4B40 EQ PUSH2 0xE3 JUMPI JUMPDEST PUSH1 0x0 DUP1 REVERT JUMPDEST PUSH2 0x76 PUSH1 0x4 DUP1 CALLDATASIZE SUB DUP2 ADD SWAP1 PUSH2 0x71 SWAP2 SWAP1 PUSH2 0x105B JUMP JUMPDEST PUSH2 0x113 JUMP JUMPDEST STOP JUMPDEST PUSH2 0x92 PUSH1 0x4 DUP1 CALLDATASIZE SUB DUP2 ADD SWAP1 PUSH2 0x8D SWAP2 SWAP1 PUSH2 0x10E6 JUMP JUMPDEST PUSH2 0x338 JUMP JUMPDEST PUSH1 0x40 MLOAD PUSH2 0xA2 SWAP5 SWAP4 SWAP3 SWAP2 SWAP1 PUSH2 0x11C6 JUMP JUMPDEST PUSH1 0x40 MLOAD DUP1 SWAP2 SUB SWAP1 RETURN JUMPDEST PUSH2 0xC5 PUSH1 0x4 DUP1 CALLDATASIZE SUB DUP2 ADD SWAP1 PUSH2 0xC0 SWAP2 SWAP1 PUSH2 0x1317 JUMP JUMPDEST PUSH2 0x642 JUMP JUMPDEST STOP JUMPDEST PUSH2 0xE1 PUSH1 0x4 DUP1 CALLDATASIZE SUB DUP2 ADD SWAP1 PUSH2 0xDC SWAP2 SWAP1 PUSH2 0x13CA JUMP JUMPDEST PUSH2 0x7F1 JUMP JUMPDEST STOP JUMPDEST PUSH2 0xFD PUSH1 0x4 DUP1 CALLDATASIZE SUB DUP2 ADD SWAP1 PUSH2 0xF8 SWAP2 SWAP1 PUSH2 0x1439 JUMP JUMPDEST PUSH2 0xA59 JUMP JUMPDEST PUSH1 0x40 MLOAD PUSH2 0x10A SWAP2 SWAP1 PUSH2 0x157A JUMP JUMPDEST PUSH1 0x40 MLOAD DUP1 SWAP2 SUB SWAP1 RETURN JUMPDEST PUSH1 0x0 DUP1 DUP1 SLOAD SWAP1 POP GT ISZERO PUSH2 0x200 JUMPI PUSH1 0x0 JUMPDEST PUSH1 0x0 DUP1 SLOAD SWAP1 POP DUP2 LT ISZERO PUSH2 0x1FE JUMPI PUSH2 0x1E0 PUSH1 0x0 DUP3 DUP2 SLOAD DUP2 LT PUSH2 0x147 JUMPI PUSH2 0x146 PUSH2 0x159C JUMP JUMPDEST JUMPDEST SWAP1 PUSH1 0x0 MSTORE PUSH1 0x20 PUSH1 0x0 KECCAK256 ADD DUP1 SLOAD PUSH2 0x15C SWAP1 PUSH2 0x15FA JUMP JUMPDEST DUP1 PUSH1 0x1F ADD PUSH1 0x20 DUP1 SWAP2 DIV MUL PUSH1 0x20 ADD PUSH1 0x40 MLOAD SWAP1 DUP2 ADD PUSH1 0x40 MSTORE DUP1 SWAP3 SWAP2 SWAP1 DUP2 DUP2 MSTORE PUSH1 0x20 ADD DUP3 DUP1 SLOAD PUSH2 0x188 SWAP1 PUSH2 0x15FA JUMP JUMPDEST DUP1 ISZERO PUSH2 0x1D5 JUMPI DUP1 PUSH1 0x1F LT PUSH2 0x1AA JUMPI PUSH2 0x100 DUP1 DUP4 SLOAD DIV MUL DUP4 MSTORE SWAP2 PUSH1 0x20 ADD SWAP2 PUSH2 0x1D5 JUMP JUMPDEST DUP3 ADD SWAP2 SWAP1 PUSH1 0x0 MSTORE PUSH1 0x20 PUSH1 0x0 KECCAK256 SWAP1 JUMPDEST DUP2 SLOAD DUP2 MSTORE SWAP1 PUSH1 0x1 ADD SWAP1 PUSH1 0x20 ADD DUP1 DUP4 GT PUSH2 0x1B8 JUMPI DUP3 SWAP1 SUB PUSH1 0x1F AND DUP3 ADD SWAP2 JUMPDEST POP POP POP POP POP DUP6 PUSH2 0xCBA JUMP JUMPDEST ISZERO PUSH2 0x1EB JUMPI POP PUSH2 0x333 JUMP JUMPDEST DUP1 DUP1 PUSH2 0x1F6 SWAP1 PUSH2 0x1664 JUMP JUMPDEST SWAP2 POP POP PUSH2 0x123 JUMP JUMPDEST POP JUMPDEST PUSH1 0x0 DUP4 SWAP1 DUP1 PUSH1 0x1 DUP2 SLOAD ADD DUP1 DUP3 SSTORE DUP1 SWAP2 POP POP PUSH1 0x1 SWAP1 SUB SWAP1 PUSH1 0x0 MSTORE PUSH1 0x20 PUSH1 0x0 KECCAK256 ADD PUSH1 0x0 SWAP1 SWAP2 SWAP1 SWAP2 SWAP1 SWAP2 POP SWAP1 DUP1 MLOAD SWAP1 PUSH1 0x20 ADD SWAP1 PUSH2 0x23B SWAP3 SWAP2 SWAP1 PUSH2 0xD13 JUMP JUMPDEST POP DUP1 PUSH1 0x2 DUP5 PUSH1 0x40 MLOAD PUSH2 0x24D SWAP2 SWAP1 PUSH2 0x16E8 JUMP JUMPDEST SWAP1 DUP2 MSTORE PUSH1 0x20 ADD PUSH1 0x40 MLOAD DUP1 SWAP2 SUB SWAP1 KECCAK256 PUSH1 0x0 PUSH2 0x100 EXP DUP2 SLOAD DUP2 PUSH4 0xFFFFFFFF MUL NOT AND SWAP1 DUP4 PUSH4 0xFFFFFFFF AND MUL OR SWAP1 SSTORE POP DUP2 PUSH1 0x4 DUP5 PUSH1 0x40 MLOAD PUSH2 0x28A SWAP2 SWAP1 PUSH2 0x16E8 JUMP JUMPDEST SWAP1 DUP2 MSTORE PUSH1 0x20 ADD PUSH1 0x40 MLOAD DUP1 SWAP2 SUB SWAP1 KECCAK256 SWAP1 DUP1 MLOAD SWAP1 PUSH1 0x20 ADD SWAP1 PUSH2 0x2AB SWAP3 SWAP2 SWAP1 PUSH2 0xD13 JUMP JUMPDEST POP DUP1 PUSH4 0xFFFFFFFF AND PUSH8 0xFFFFFFFFFFFFFFFF DUP2 GT ISZERO PUSH2 0x2CC JUMPI PUSH2 0x2CB PUSH2 0xEF4 JUMP JUMPDEST JUMPDEST PUSH1 0x40 MLOAD SWAP1 DUP1 DUP3 MSTORE DUP1 PUSH1 0x20 MUL PUSH1 0x20 ADD DUP3 ADD PUSH1 0x40 MSTORE DUP1 ISZERO PUSH2 0x2FF JUMPI DUP2 PUSH1 0x20 ADD JUMPDEST PUSH1 0x60 DUP2 MSTORE PUSH1 0x20 ADD SWAP1 PUSH1 0x1 SWAP1 SUB SWAP1 DUP2 PUSH2 0x2EA JUMPI SWAP1 POP JUMPDEST POP PUSH1 0x1 DUP5 PUSH1 0x40 MLOAD PUSH2 0x310 SWAP2 SWAP1 PUSH2 0x16E8 JUMP JUMPDEST SWAP1 DUP2 MSTORE PUSH1 0x20 ADD PUSH1 0x40 MLOAD DUP1 SWAP2 SUB SWAP1 KECCAK256 SWAP1 DUP1 MLOAD SWAP1 PUSH1 0x20 ADD SWAP1 PUSH2 0x331 SWAP3 SWAP2 SWAP1 PUSH2 0xD99 JUMP JUMPDEST POP JUMPDEST POP POP POP JUMP JUMPDEST PUSH1 0x60 DUP1 PUSH1 0x0 DUP1 PUSH1 0x0 DUP1 DUP1 SLOAD SWAP1 POP GT ISZERO PUSH2 0x5E5 JUMPI PUSH1 0x0 JUMPDEST PUSH1 0x0 DUP1 SLOAD SWAP1 POP DUP2 LT ISZERO PUSH2 0x5E3 JUMPI PUSH2 0x40B PUSH1 0x0 DUP3 DUP2 SLOAD DUP2 LT PUSH2 0x372 JUMPI PUSH2 0x371 PUSH2 0x159C JUMP JUMPDEST JUMPDEST SWAP1 PUSH1 0x0 MSTORE PUSH1 0x20 PUSH1 0x0 KECCAK256 ADD DUP1 SLOAD PUSH2 0x387 SWAP1 PUSH2 0x15FA JUMP JUMPDEST DUP1 PUSH1 0x1F ADD PUSH1 0x20 DUP1 SWAP2 DIV MUL PUSH1 0x20 ADD PUSH1 0x40 MLOAD SWAP1 DUP2 ADD PUSH1 0x40 MSTORE DUP1 SWAP3 SWAP2 SWAP1 DUP2 DUP2 MSTORE PUSH1 0x20 ADD DUP3 DUP1 SLOAD PUSH2 0x3B3 SWAP1 PUSH2 0x15FA JUMP JUMPDEST DUP1 ISZERO PUSH2 0x400 JUMPI DUP1 PUSH1 0x1F LT PUSH2 0x3D5 JUMPI PUSH2 0x100 DUP1 DUP4 SLOAD DIV MUL DUP4 MSTORE SWAP2 PUSH1 0x20 ADD SWAP2 PUSH2 0x400 JUMP JUMPDEST DUP3 ADD SWAP2 SWAP1 PUSH1 0x0 MSTORE PUSH1 0x20 PUSH1 0x0 KECCAK256 SWAP1 JUMPDEST DUP2 SLOAD DUP2 MSTORE SWAP1 PUSH1 0x1 ADD SWAP1 PUSH1 0x20 ADD DUP1 DUP4 GT PUSH2 0x3E3 JUMPI DUP3 SWAP1 SUB PUSH1 0x1F AND DUP3 ADD SWAP2 JUMPDEST POP POP POP POP POP DUP8 PUSH2 0xCBA JUMP JUMPDEST ISZERO PUSH2 0x5D0 JUMPI PUSH1 0x0 DUP2 DUP2 SLOAD DUP2 LT PUSH2 0x424 JUMPI PUSH2 0x423 PUSH2 0x159C JUMP JUMPDEST JUMPDEST SWAP1 PUSH1 0x0 MSTORE PUSH1 0x20 PUSH1 0x0 KECCAK256 ADD PUSH1 0x4 DUP8 PUSH1 0x40 MLOAD PUSH2 0x43E SWAP2 SWAP1 PUSH2 0x16E8 JUMP JUMPDEST SWAP1 DUP2 MSTORE PUSH1 0x20 ADD PUSH1 0x40 MLOAD DUP1 SWAP2 SUB SWAP1 KECCAK256 PUSH1 0x2 DUP9 PUSH1 0x40 MLOAD PUSH2 0x45C SWAP2 SWAP1 PUSH2 0x16E8 JUMP JUMPDEST SWAP1 DUP2 MSTORE PUSH1 0x20 ADD PUSH1 0x40 MLOAD DUP1 SWAP2 SUB SWAP1 KECCAK256 PUSH1 0x0 SWAP1 SLOAD SWAP1 PUSH2 0x100 EXP SWAP1 DIV PUSH4 0xFFFFFFFF AND PUSH1 0x3 DUP10 PUSH1 0x40 MLOAD PUSH2 0x48B SWAP2 SWAP1 PUSH2 0x16E8 JUMP JUMPDEST SWAP1 DUP2 MSTORE PUSH1 0x20 ADD PUSH1 0x40 MLOAD DUP1 SWAP2 SUB SWAP1 KECCAK256 PUSH1 0x0 SWAP1 SLOAD SWAP1 PUSH2 0x100 EXP SWAP1 DIV PUSH4 0xFFFFFFFF AND DUP4 DUP1 SLOAD PUSH2 0x4B6 SWAP1 PUSH2 0x15FA JUMP JUMPDEST DUP1 PUSH1 0x1F ADD PUSH1 0x20 DUP1 SWAP2 DIV MUL PUSH1 0x20 ADD PUSH1 0x40 MLOAD SWAP1 DUP2 ADD PUSH1 0x40 MSTORE DUP1 SWAP3 SWAP2 SWAP1 DUP2 DUP2 MSTORE PUSH1 0x20 ADD DUP3 DUP1 SLOAD PUSH2 0x4E2 SWAP1 PUSH2 0x15FA JUMP JUMPDEST DUP1 ISZERO PUSH2 0x52F JUMPI DUP1 PUSH1 0x1F LT PUSH2 0x504 JUMPI PUSH2 0x100 DUP1 DUP4 SLOAD DIV MUL DUP4 MSTORE SWAP2 PUSH1 0x20 ADD SWAP2 PUSH2 0x52F JUMP JUMPDEST DUP3 ADD SWAP2 SWAP1 PUSH1 0x0 MSTORE PUSH1 0x20 PUSH1 0x0 KECCAK256 SWAP1 JUMPDEST DUP2 SLOAD DUP2 MSTORE SWAP1 PUSH1 0x1 ADD SWAP1 PUSH1 0x20 ADD DUP1 DUP4 GT PUSH2 0x512 JUMPI DUP3 SWAP1 SUB PUSH1 0x1F AND DUP3 ADD SWAP2 JUMPDEST POP POP POP POP POP SWAP4 POP DUP3 DUP1 SLOAD PUSH2 0x542 SWAP1 PUSH2 0x15FA JUMP JUMPDEST DUP1 PUSH1 0x1F ADD PUSH1 0x20 DUP1 SWAP2 DIV MUL PUSH1 0x20 ADD PUSH1 0x40 MLOAD SWAP1 DUP2 ADD PUSH1 0x40 MSTORE DUP1 SWAP3 SWAP2 SWAP1 DUP2 DUP2 MSTORE PUSH1 0x20 ADD DUP3 DUP1 SLOAD PUSH2 0x56E SWAP1 PUSH2 0x15FA JUMP JUMPDEST DUP1 ISZERO PUSH2 0x5BB JUMPI DUP1 PUSH1 0x1F LT PUSH2 0x590 JUMPI PUSH2 0x100 DUP1 DUP4 SLOAD DIV MUL DUP4 MSTORE SWAP2 PUSH1 0x20 ADD SWAP2 PUSH2 0x5BB JUMP JUMPDEST DUP3 ADD SWAP2 SWAP1 PUSH1 0x0 MSTORE PUSH1 0x20 PUSH1 0x0 KECCAK256 SWAP1 JUMPDEST DUP2 SLOAD DUP2 MSTORE SWAP1 PUSH1 0x1 ADD SWAP1 PUSH1 0x20 ADD DUP1 DUP4 GT PUSH2 0x59E JUMPI DUP3 SWAP1 SUB PUSH1 0x1F AND DUP3 ADD SWAP2 JUMPDEST POP POP POP POP POP SWAP3 POP SWAP5 POP SWAP5 POP SWAP5 POP SWAP5 POP POP PUSH2 0x63B JUMP JUMPDEST DUP1 DUP1 PUSH2 0x5DB SWAP1 PUSH2 0x1664 JUMP JUMPDEST SWAP2 POP POP PUSH2 0x34E JUMP JUMPDEST POP JUMPDEST PUSH1 0x0 DUP1 PUSH1 0x40 MLOAD DUP1 PUSH1 0x40 ADD PUSH1 0x40 MSTORE DUP1 PUSH1 0x1B DUP2 MSTORE PUSH1 0x20 ADD PUSH32 0x4E6F2046696C6520466F756E6420666F722074686174204E616D650000000000 DUP2 MSTORE POP SWAP2 SWAP1 PUSH1 0x40 MLOAD DUP1 PUSH1 0x20 ADD PUSH1 0x40 MSTORE DUP1 PUSH1 0x0 DUP2 MSTORE POP SWAP2 SWAP1 SWAP4 POP SWAP4 POP SWAP4 POP SWAP4 POP JUMPDEST SWAP2 SWAP4 POP SWAP2 SWAP4 JUMP JUMPDEST PUSH1 0x0 DUP1 DUP1 SLOAD SWAP1 POP GT ISZERO PUSH2 0x7E9 JUMPI PUSH1 0x0 JUMPDEST PUSH1 0x0 DUP1 SLOAD SWAP1 POP DUP2 LT ISZERO PUSH2 0x7E7 JUMPI PUSH2 0x70F PUSH1 0x0 DUP3 DUP2 SLOAD DUP2 LT PUSH2 0x676 JUMPI PUSH2 0x675 PUSH2 0x159C JUMP JUMPDEST JUMPDEST SWAP1 PUSH1 0x0 MSTORE PUSH1 0x20 PUSH1 0x0 KECCAK256 ADD DUP1 SLOAD PUSH2 0x68B SWAP1 PUSH2 0x15FA JUMP JUMPDEST DUP1 PUSH1 0x1F ADD PUSH1 0x20 DUP1 SWAP2 DIV MUL PUSH1 0x20 ADD PUSH1 0x40 MLOAD SWAP1 DUP2 ADD PUSH1 0x40 MSTORE DUP1 SWAP3 SWAP2 SWAP1 DUP2 DUP2 MSTORE PUSH1 0x20 ADD DUP3 DUP1 SLOAD PUSH2 0x6B7 SWAP1 PUSH2 0x15FA JUMP JUMPDEST DUP1 ISZERO PUSH2 0x704 JUMPI DUP1 PUSH1 0x1F LT PUSH2 0x6D9 JUMPI PUSH2 0x100 DUP1 DUP4 SLOAD DIV MUL DUP4 MSTORE SWAP2 PUSH1 0x20 ADD SWAP2 PUSH2 0x704 JUMP JUMPDEST DUP3 ADD SWAP2 SWAP1 PUSH1 0x0 MSTORE PUSH1 0x20 PUSH1 0x0 KECCAK256 SWAP1 JUMPDEST DUP2 SLOAD DUP2 MSTORE SWAP1 PUSH1 0x1 ADD SWAP1 PUSH1 0x20 ADD DUP1 DUP4 GT PUSH2 0x6E7 JUMPI DUP3 SWAP1 SUB PUSH1 0x1F AND DUP3 ADD SWAP2 JUMPDEST POP POP POP POP POP DUP8 PUSH2 0xCBA JUMP JUMPDEST ISZERO PUSH2 0x7D4 JUMPI PUSH1 0x0 DUP5 PUSH4 0xFFFFFFFF AND SWAP1 POP JUMPDEST DUP4 PUSH4 0xFFFFFFFF AND DUP2 LT ISZERO PUSH2 0x7CD JUMPI DUP3 DUP6 PUSH4 0xFFFFFFFF AND DUP3 PUSH2 0x741 SWAP2 SWAP1 PUSH2 0x16FF JUMP JUMPDEST DUP2 MLOAD DUP2 LT PUSH2 0x752 JUMPI PUSH2 0x751 PUSH2 0x159C JUMP JUMPDEST JUMPDEST PUSH1 0x20 MUL PUSH1 0x20 ADD ADD MLOAD PUSH1 0x1 DUP9 PUSH1 0x40 MLOAD PUSH2 0x76A SWAP2 SWAP1 PUSH2 0x16E8 JUMP JUMPDEST SWAP1 DUP2 MSTORE PUSH1 0x20 ADD PUSH1 0x40 MLOAD DUP1 SWAP2 SUB SWAP1 KECCAK256 DUP8 PUSH4 0xFFFFFFFF AND DUP2 SLOAD DUP2 LT PUSH2 0x790 JUMPI PUSH2 0x78F PUSH2 0x159C JUMP JUMPDEST JUMPDEST SWAP1 PUSH1 0x0 MSTORE PUSH1 0x20 PUSH1 0x0 KECCAK256 ADD DUP3 DUP2 SLOAD DUP2 LT PUSH2 0x7AC JUMPI PUSH2 0x7AB PUSH2 0x159C JUMP JUMPDEST JUMPDEST SWAP1 PUSH1 0x0 MSTORE PUSH1 0x20 PUSH1 0x0 KECCAK256 ADD DUP2 SWAP1 SSTORE POP DUP1 DUP1 PUSH2 0x7C5 SWAP1 PUSH2 0x1664 JUMP JUMPDEST SWAP2 POP POP PUSH2 0x720 JUMP JUMPDEST POP POP PUSH2 0x7EA JUMP JUMPDEST DUP1 DUP1 PUSH2 0x7DF SWAP1 PUSH2 0x1664 JUMP JUMPDEST SWAP2 POP POP PUSH2 0x652 JUMP JUMPDEST POP JUMPDEST JUMPDEST POP POP POP POP POP JUMP JUMPDEST PUSH1 0x0 DUP1 DUP1 SLOAD SWAP1 POP GT ISZERO PUSH2 0xA53 JUMPI PUSH1 0x0 JUMPDEST PUSH1 0x0 DUP1 SLOAD SWAP1 POP DUP2 LT ISZERO PUSH2 0xA51 JUMPI PUSH2 0x8BE PUSH1 0x0 DUP3 DUP2 SLOAD DUP2 LT PUSH2 0x825 JUMPI PUSH2 0x824 PUSH2 0x159C JUMP JUMPDEST JUMPDEST SWAP1 PUSH1 0x0 MSTORE PUSH1 0x20 PUSH1 0x0 KECCAK256 ADD DUP1 SLOAD PUSH2 0x83A SWAP1 PUSH2 0x15FA JUMP JUMPDEST DUP1 PUSH1 0x1F ADD PUSH1 0x20 DUP1 SWAP2 DIV MUL PUSH1 0x20 ADD PUSH1 0x40 MLOAD SWAP1 DUP2 ADD PUSH1 0x40 MSTORE DUP1 SWAP3 SWAP2 SWAP1 DUP2 DUP2 MSTORE PUSH1 0x20 ADD DUP3 DUP1 SLOAD PUSH2 0x866 SWAP1 PUSH2 0x15FA JUMP JUMPDEST DUP1 ISZERO PUSH2 0x8B3 JUMPI DUP1 PUSH1 0x1F LT PUSH2 0x888 JUMPI PUSH2 0x100 DUP1 DUP4 SLOAD DIV MUL DUP4 MSTORE SWAP2 PUSH1 0x20 ADD SWAP2 PUSH2 0x8B3 JUMP JUMPDEST DUP3 ADD SWAP2 SWAP1 PUSH1 0x0 MSTORE PUSH1 0x20 PUSH1 0x0 KECCAK256 SWAP1 JUMPDEST DUP2 SLOAD DUP2 MSTORE SWAP1 PUSH1 0x1 ADD SWAP1 PUSH1 0x20 ADD DUP1 DUP4 GT PUSH2 0x896 JUMPI DUP3 SWAP1 SUB PUSH1 0x1F AND DUP3 ADD SWAP2 JUMPDEST POP POP POP POP POP DUP6 PUSH2 0xCBA JUMP JUMPDEST ISZERO PUSH2 0xA3E JUMPI PUSH1 0x2 DUP5 PUSH1 0x40 MLOAD PUSH2 0x8D3 SWAP2 SWAP1 PUSH2 0x16E8 JUMP JUMPDEST SWAP1 DUP2 MSTORE PUSH1 0x20 ADD PUSH1 0x40 MLOAD DUP1 SWAP2 SUB SWAP1 KECCAK256 PUSH1 0x0 SWAP1 SLOAD SWAP1 PUSH2 0x100 EXP SWAP1 DIV PUSH4 0xFFFFFFFF AND PUSH4 0xFFFFFFFF AND DUP4 PUSH4 0xFFFFFFFF AND LT PUSH2 0x90A JUMPI POP PUSH2 0xA54 JUMP JUMPDEST PUSH1 0x2 DUP5 PUSH1 0x40 MLOAD PUSH2 0x91A SWAP2 SWAP1 PUSH2 0x16E8 JUMP JUMPDEST SWAP1 DUP2 MSTORE PUSH1 0x20 ADD PUSH1 0x40 MLOAD DUP1 SWAP2 SUB SWAP1 KECCAK256 PUSH1 0x0 SWAP1 SLOAD SWAP1 PUSH2 0x100 EXP SWAP1 DIV PUSH4 0xFFFFFFFF AND PUSH4 0xFFFFFFFF AND PUSH1 0x1 DUP5 PUSH2 0x94C SWAP2 SWAP1 PUSH2 0x1733 JUMP JUMPDEST PUSH4 0xFFFFFFFF AND SUB PUSH2 0x995 JUMPI DUP2 PUSH1 0x3 DUP6 PUSH1 0x40 MLOAD PUSH2 0x968 SWAP2 SWAP1 PUSH2 0x16E8 JUMP JUMPDEST SWAP1 DUP2 MSTORE PUSH1 0x20 ADD PUSH1 0x40 MLOAD DUP1 SWAP2 SUB SWAP1 KECCAK256 PUSH1 0x0 PUSH2 0x100 EXP DUP2 SLOAD DUP2 PUSH4 0xFFFFFFFF MUL NOT AND SWAP1 DUP4 PUSH4 0xFFFFFFFF AND MUL OR SWAP1 SSTORE POP JUMPDEST DUP2 PUSH4 0xFFFFFFFF AND PUSH8 0xFFFFFFFFFFFFFFFF DUP2 GT ISZERO PUSH2 0x9B5 JUMPI PUSH2 0x9B4 PUSH2 0xEF4 JUMP JUMPDEST JUMPDEST PUSH1 0x40 MLOAD SWAP1 DUP1 DUP3 MSTORE DUP1 PUSH1 0x20 MUL PUSH1 0x20 ADD DUP3 ADD PUSH1 0x40 MSTORE DUP1 ISZERO PUSH2 0x9E3 JUMPI DUP2 PUSH1 0x20 ADD PUSH1 0x20 DUP3 MUL DUP1 CALLDATASIZE DUP4 CALLDATACOPY DUP1 DUP3 ADD SWAP2 POP POP SWAP1 POP JUMPDEST POP PUSH1 0x1 DUP6 PUSH1 0x40 MLOAD PUSH2 0x9F4 SWAP2 SWAP1 PUSH2 0x16E8 JUMP JUMPDEST SWAP1 DUP2 MSTORE PUSH1 0x20 ADD PUSH1 0x40 MLOAD DUP1 SWAP2 SUB SWAP1 KECCAK256 DUP5 PUSH4 0xFFFFFFFF AND DUP2 SLOAD DUP2 LT PUSH2 0xA1A JUMPI PUSH2 0xA19 PUSH2 0x159C JUMP JUMPDEST JUMPDEST SWAP1 PUSH1 0x0 MSTORE PUSH1 0x20 PUSH1 0x0 KECCAK256 ADD SWAP1 DUP1 MLOAD SWAP1 PUSH1 0x20 ADD SWAP1 PUSH2 0xA37 SWAP3 SWAP2 SWAP1 PUSH2 0xDF9 JUMP JUMPDEST POP POP PUSH2 0xA54 JUMP JUMPDEST DUP1 DUP1 PUSH2 0xA49 SWAP1 PUSH2 0x1664 JUMP JUMPDEST SWAP2 POP POP PUSH2 0x801 JUMP JUMPDEST POP JUMPDEST JUMPDEST POP POP POP JUMP JUMPDEST PUSH1 0x60 PUSH1 0x0 DUP1 DUP1 SLOAD SWAP1 POP GT ISZERO PUSH2 0xC65 JUMPI PUSH1 0x0 JUMPDEST PUSH1 0x0 DUP1 SLOAD SWAP1 POP DUP2 LT ISZERO PUSH2 0xC63 JUMPI PUSH2 0xB28 PUSH1 0x0 DUP3 DUP2 SLOAD DUP2 LT PUSH2 0xA8F JUMPI PUSH2 0xA8E PUSH2 0x159C JUMP JUMPDEST JUMPDEST SWAP1 PUSH1 0x0 MSTORE PUSH1 0x20 PUSH1 0x0 KECCAK256 ADD DUP1 SLOAD PUSH2 0xAA4 SWAP1 PUSH2 0x15FA JUMP JUMPDEST DUP1 PUSH1 0x1F ADD PUSH1 0x20 DUP1 SWAP2 DIV MUL PUSH1 0x20 ADD PUSH1 0x40 MLOAD SWAP1 DUP2 ADD PUSH1 0x40 MSTORE DUP1 SWAP3 SWAP2 SWAP1 DUP2 DUP2 MSTORE PUSH1 0x20 ADD DUP3 DUP1 SLOAD PUSH2 0xAD0 SWAP1 PUSH2 0x15FA JUMP JUMPDEST DUP1 ISZERO PUSH2 0xB1D JUMPI DUP1 PUSH1 0x1F LT PUSH2 0xAF2 JUMPI PUSH2 0x100 DUP1 DUP4 SLOAD DIV MUL DUP4 MSTORE SWAP2 PUSH1 0x20 ADD SWAP2 PUSH2 0xB1D JUMP JUMPDEST DUP3 ADD SWAP2 SWAP1 PUSH1 0x0 MSTORE PUSH1 0x20 PUSH1 0x0 KECCAK256 SWAP1 JUMPDEST DUP2 SLOAD DUP2 MSTORE SWAP1 PUSH1 0x1 ADD SWAP1 PUSH1 0x20 ADD DUP1 DUP4 GT PUSH2 0xB00 JUMPI DUP3 SWAP1 SUB PUSH1 0x1F AND DUP3 ADD SWAP2 JUMPDEST POP POP POP POP POP DUP8 PUSH2 0xCBA JUMP JUMPDEST ISZERO PUSH2 0xC50 JUMPI PUSH1 0x0 DUP5 DUP5 PUSH2 0xB3B SWAP2 SWAP1 PUSH2 0x176D JUMP JUMPDEST PUSH4 0xFFFFFFFF AND PUSH8 0xFFFFFFFFFFFFFFFF DUP2 GT ISZERO PUSH2 0xB5A JUMPI PUSH2 0xB59 PUSH2 0xEF4 JUMP JUMPDEST JUMPDEST PUSH1 0x40 MLOAD SWAP1 DUP1 DUP3 MSTORE DUP1 PUSH1 0x20 MUL PUSH1 0x20 ADD DUP3 ADD PUSH1 0x40 MSTORE DUP1 ISZERO PUSH2 0xB88 JUMPI DUP2 PUSH1 0x20 ADD PUSH1 0x20 DUP3 MUL DUP1 CALLDATASIZE DUP4 CALLDATACOPY DUP1 DUP3 ADD SWAP2 POP POP SWAP1 POP JUMPDEST POP SWAP1 POP PUSH1 0x0 DUP6 PUSH4 0xFFFFFFFF AND SWAP1 POP JUMPDEST DUP5 PUSH4 0xFFFFFFFF AND DUP2 LT ISZERO PUSH2 0xC45 JUMPI PUSH1 0x1 DUP9 PUSH1 0x40 MLOAD PUSH2 0xBB5 SWAP2 SWAP1 PUSH2 0x16E8 JUMP JUMPDEST SWAP1 DUP2 MSTORE PUSH1 0x20 ADD PUSH1 0x40 MLOAD DUP1 SWAP2 SUB SWAP1 KECCAK256 DUP8 PUSH4 0xFFFFFFFF AND DUP2 SLOAD DUP2 LT PUSH2 0xBDB JUMPI PUSH2 0xBDA PUSH2 0x159C JUMP JUMPDEST JUMPDEST SWAP1 PUSH1 0x0 MSTORE PUSH1 0x20 PUSH1 0x0 KECCAK256 ADD DUP2 DUP2 SLOAD DUP2 LT PUSH2 0xBF7 JUMPI PUSH2 0xBF6 PUSH2 0x159C JUMP JUMPDEST JUMPDEST SWAP1 PUSH1 0x0 MSTORE PUSH1 0x20 PUSH1 0x0 KECCAK256 ADD SLOAD DUP3 DUP8 PUSH4 0xFFFFFFFF AND DUP4 PUSH2 0xC15 SWAP2 SWAP1 PUSH2 0x16FF JUMP JUMPDEST DUP2 MLOAD DUP2 LT PUSH2 0xC26 JUMPI PUSH2 0xC25 PUSH2 0x159C JUMP JUMPDEST JUMPDEST PUSH1 0x20 MUL PUSH1 0x20 ADD ADD DUP2 DUP2 MSTORE POP POP DUP1 DUP1 PUSH2 0xC3D SWAP1 PUSH2 0x1664 JUMP JUMPDEST SWAP2 POP POP PUSH2 0xB97 JUMP JUMPDEST POP DUP1 SWAP3 POP POP POP PUSH2 0xCB2 JUMP JUMPDEST DUP1 DUP1 PUSH2 0xC5B SWAP1 PUSH2 0x1664 JUMP JUMPDEST SWAP2 POP POP PUSH2 0xA6B JUMP JUMPDEST POP JUMPDEST PUSH1 0x0 PUSH8 0xFFFFFFFFFFFFFFFF DUP2 GT ISZERO PUSH2 0xC80 JUMPI PUSH2 0xC7F PUSH2 0xEF4 JUMP JUMPDEST JUMPDEST PUSH1 0x40 MLOAD SWAP1 DUP1 DUP3 MSTORE DUP1 PUSH1 0x20 MUL PUSH1 0x20 ADD DUP3 ADD PUSH1 0x40 MSTORE DUP1 ISZERO PUSH2 0xCAE JUMPI DUP2 PUSH1 0x20 ADD PUSH1 0x20 DUP3 MUL DUP1 CALLDATASIZE DUP4 CALLDATACOPY DUP1 DUP3 ADD SWAP2 POP POP SWAP1 POP JUMPDEST POP SWAP1 POP JUMPDEST SWAP5 SWAP4 POP POP POP POP JUMP JUMPDEST PUSH1 0x0 DUP2 PUSH1 0x40 MLOAD PUSH1 0x20 ADD PUSH2 0xCCD SWAP2 SWAP1 PUSH2 0x16E8 JUMP JUMPDEST PUSH1 0x40 MLOAD PUSH1 0x20 DUP2 DUP4 SUB SUB DUP2 MSTORE SWAP1 PUSH1 0x40 MSTORE DUP1 MLOAD SWAP1 PUSH1 0x20 ADD KECCAK256 DUP4 PUSH1 0x40 MLOAD PUSH1 0x20 ADD PUSH2 0xCF4 SWAP2 SWAP1 PUSH2 0x16E8 JUMP JUMPDEST PUSH1 0x40 MLOAD PUSH1 0x20 DUP2 DUP4 SUB SUB DUP2 MSTORE SWAP1 PUSH1 0x40 MSTORE DUP1 MLOAD SWAP1 PUSH1 0x20 ADD KECCAK256 EQ SWAP1 POP SWAP3 SWAP2 POP POP JUMP JUMPDEST DUP3 DUP1 SLOAD PUSH2 0xD1F SWAP1 PUSH2 0x15FA JUMP JUMPDEST SWAP1 PUSH1 0x0 MSTORE PUSH1 0x20 PUSH1 0x0 KECCAK256 SWAP1 PUSH1 0x1F ADD PUSH1 0x20 SWAP1 DIV DUP2 ADD SWAP3 DUP3 PUSH2 0xD41 JUMPI PUSH1 0x0 DUP6 SSTORE PUSH2 0xD88 JUMP JUMPDEST DUP3 PUSH1 0x1F LT PUSH2 0xD5A JUMPI DUP1 MLOAD PUSH1 0xFF NOT AND DUP4 DUP1 ADD OR DUP6 SSTORE PUSH2 0xD88 JUMP JUMPDEST DUP3 DUP1 ADD PUSH1 0x1 ADD DUP6 SSTORE DUP3 ISZERO PUSH2 0xD88 JUMPI SWAP2 DUP3 ADD JUMPDEST DUP3 DUP2 GT ISZERO PUSH2 0xD87 JUMPI DUP3 MLOAD DUP3 SSTORE SWAP2 PUSH1 0x20 ADD SWAP2 SWAP1 PUSH1 0x1 ADD SWAP1 PUSH2 0xD6C JUMP JUMPDEST JUMPDEST POP SWAP1 POP PUSH2 0xD95 SWAP2 SWAP1 PUSH2 0xE46 JUMP JUMPDEST POP SWAP1 JUMP JUMPDEST DUP3 DUP1 SLOAD DUP3 DUP3 SSTORE SWAP1 PUSH1 0x0 MSTORE PUSH1 0x20 PUSH1 0x0 KECCAK256 SWAP1 DUP2 ADD SWAP3 DUP3 ISZERO PUSH2 0xDE8 JUMPI SWAP2 PUSH1 0x20 MUL DUP3 ADD JUMPDEST DUP3 DUP2 GT ISZERO PUSH2 0xDE7 JUMPI DUP3 MLOAD DUP3 SWAP1 DUP1 MLOAD SWAP1 PUSH1 0x20 ADD SWAP1 PUSH2 0xDD7 SWAP3 SWAP2 SWAP1 PUSH2 0xDF9 JUMP JUMPDEST POP SWAP2 PUSH1 0x20 ADD SWAP2 SWAP1 PUSH1 0x1 ADD SWAP1 PUSH2 0xDB9 JUMP JUMPDEST JUMPDEST POP SWAP1 POP PUSH2 0xDF5 SWAP2 SWAP1 PUSH2 0xE63 JUMP JUMPDEST POP SWAP1 JUMP JUMPDEST DUP3 DUP1 SLOAD DUP3 DUP3 SSTORE SWAP1 PUSH1 0x0 MSTORE PUSH1 0x20 PUSH1 0x0 KECCAK256 SWAP1 DUP2 ADD SWAP3 DUP3 ISZERO PUSH2 0xE35 JUMPI SWAP2 PUSH1 0x20 MUL DUP3 ADD JUMPDEST DUP3 DUP2 GT ISZERO PUSH2 0xE34 JUMPI DUP3 MLOAD DUP3 SSTORE SWAP2 PUSH1 0x20 ADD SWAP2 SWAP1 PUSH1 0x1 ADD SWAP1 PUSH2 0xE19 JUMP JUMPDEST JUMPDEST POP SWAP1 POP PUSH2 0xE42 SWAP2 SWAP1 PUSH2 0xE87 JUMP JUMPDEST POP SWAP1 JUMP JUMPDEST JUMPDEST DUP1 DUP3 GT ISZERO PUSH2 0xE5F JUMPI PUSH1 0x0 DUP2 PUSH1 0x0 SWAP1 SSTORE POP PUSH1 0x1 ADD PUSH2 0xE47 JUMP JUMPDEST POP SWAP1 JUMP JUMPDEST JUMPDEST DUP1 DUP3 GT ISZERO PUSH2 0xE83 JUMPI PUSH1 0x0 DUP2 DUP2 PUSH2 0xE7A SWAP2 SWAP1 PUSH2 0xEA4 JUMP JUMPDEST POP PUSH1 0x1 ADD PUSH2 0xE64 JUMP JUMPDEST POP SWAP1 JUMP JUMPDEST JUMPDEST DUP1 DUP3 GT ISZERO PUSH2 0xEA0 JUMPI PUSH1 0x0 DUP2 PUSH1 0x0 SWAP1 SSTORE POP PUSH1 0x1 ADD PUSH2 0xE88 JUMP JUMPDEST POP SWAP1 JUMP JUMPDEST POP DUP1 SLOAD PUSH1 0x0 DUP3 SSTORE SWAP1 PUSH1 0x0 MSTORE PUSH1 0x20 PUSH1 0x0 KECCAK256 SWAP1 DUP2 ADD SWAP1 PUSH2 0xEC2 SWAP2 SWAP1 PUSH2 0xE87 JUMP JUMPDEST POP JUMP JUMPDEST PUSH1 0x0 PUSH1 0x40 MLOAD SWAP1 POP SWAP1 JUMP JUMPDEST PUSH1 0x0 DUP1 REVERT JUMPDEST PUSH1 0x0 DUP1 REVERT JUMPDEST PUSH1 0x0 DUP1 REVERT JUMPDEST PUSH1 0x0 DUP1 REVERT JUMPDEST PUSH1 0x0 PUSH1 0x1F NOT PUSH1 0x1F DUP4 ADD AND SWAP1 POP SWAP2 SWAP1 POP JUMP JUMPDEST PUSH32 0x4E487B7100000000000000000000000000000000000000000000000000000000 PUSH1 0x0 MSTORE PUSH1 0x41 PUSH1 0x4 MSTORE PUSH1 0x24 PUSH1 0x0 REVERT JUMPDEST PUSH2 0xF2C DUP3 PUSH2 0xEE3 JUMP JUMPDEST DUP2 ADD DUP2 DUP2 LT PUSH8 0xFFFFFFFFFFFFFFFF DUP3 GT OR ISZERO PUSH2 0xF4B JUMPI PUSH2 0xF4A PUSH2 0xEF4 JUMP JUMPDEST JUMPDEST DUP1 PUSH1 0x40 MSTORE POP POP POP JUMP JUMPDEST PUSH1 0x0 PUSH2 0xF5E PUSH2 0xEC5 JUMP JUMPDEST SWAP1 POP PUSH2 0xF6A DUP3 DUP3 PUSH2 0xF23 JUMP JUMPDEST SWAP2 SWAP1 POP JUMP JUMPDEST PUSH1 0x0 PUSH8 0xFFFFFFFFFFFFFFFF DUP3 GT ISZERO PUSH2 0xF8A JUMPI PUSH2 0xF89 PUSH2 0xEF4 JUMP JUMPDEST JUMPDEST PUSH2 0xF93 DUP3 PUSH2 0xEE3 JUMP JUMPDEST SWAP1 POP PUSH1 0x20 DUP2 ADD SWAP1 POP SWAP2 SWAP1 POP JUMP JUMPDEST DUP3 DUP2 DUP4 CALLDATACOPY PUSH1 0x0 DUP4 DUP4 ADD MSTORE POP POP POP JUMP JUMPDEST PUSH1 0x0 PUSH2 0xFC2 PUSH2 0xFBD DUP5 PUSH2 0xF6F JUMP JUMPDEST PUSH2 0xF54 JUMP JUMPDEST SWAP1 POP DUP3 DUP2 MSTORE PUSH1 0x20 DUP2 ADD DUP5 DUP5 DUP5 ADD GT ISZERO PUSH2 0xFDE JUMPI PUSH2 0xFDD PUSH2 0xEDE JUMP JUMPDEST JUMPDEST PUSH2 0xFE9 DUP5 DUP3 DUP6 PUSH2 0xFA0 JUMP JUMPDEST POP SWAP4 SWAP3 POP POP POP JUMP JUMPDEST PUSH1 0x0 DUP3 PUSH1 0x1F DUP4 ADD SLT PUSH2 0x1006 JUMPI PUSH2 0x1005 PUSH2 0xED9 JUMP JUMPDEST JUMPDEST DUP2 CALLDATALOAD PUSH2 0x1016 DUP5 DUP3 PUSH1 0x20 DUP7 ADD PUSH2 0xFAF JUMP JUMPDEST SWAP2 POP POP SWAP3 SWAP2 POP POP JUMP JUMPDEST PUSH1 0x0 PUSH4 0xFFFFFFFF DUP3 AND SWAP1 POP SWAP2 SWAP1 POP JUMP JUMPDEST PUSH2 0x1038 DUP2 PUSH2 0x101F JUMP JUMPDEST DUP2 EQ PUSH2 0x1043 JUMPI PUSH1 0x0 DUP1 REVERT JUMPDEST POP JUMP JUMPDEST PUSH1 0x0 DUP2 CALLDATALOAD SWAP1 POP PUSH2 0x1055 DUP2 PUSH2 0x102F JUMP JUMPDEST SWAP3 SWAP2 POP POP JUMP JUMPDEST PUSH1 0x0 DUP1 PUSH1 0x0 PUSH1 0x60 DUP5 DUP7 SUB SLT ISZERO PUSH2 0x1074 JUMPI PUSH2 0x1073 PUSH2 0xECF JUMP JUMPDEST JUMPDEST PUSH1 0x0 DUP5 ADD CALLDATALOAD PUSH8 0xFFFFFFFFFFFFFFFF DUP2 GT ISZERO PUSH2 0x1092 JUMPI PUSH2 0x1091 PUSH2 0xED4 JUMP JUMPDEST JUMPDEST PUSH2 0x109E DUP7 DUP3 DUP8 ADD PUSH2 0xFF1 JUMP JUMPDEST SWAP4 POP POP PUSH1 0x20 DUP5 ADD CALLDATALOAD PUSH8 0xFFFFFFFFFFFFFFFF DUP2 GT ISZERO PUSH2 0x10BF JUMPI PUSH2 0x10BE PUSH2 0xED4 JUMP JUMPDEST JUMPDEST PUSH2 0x10CB DUP7 DUP3 DUP8 ADD PUSH2 0xFF1 JUMP JUMPDEST SWAP3 POP POP PUSH1 0x40 PUSH2 0x10DC DUP7 DUP3 DUP8 ADD PUSH2 0x1046 JUMP JUMPDEST SWAP2 POP POP SWAP3 POP SWAP3 POP SWAP3 JUMP JUMPDEST PUSH1 0x0 PUSH1 0x20 DUP3 DUP5 SUB SLT ISZERO PUSH2 0x10FC JUMPI PUSH2 0x10FB PUSH2 0xECF JUMP JUMPDEST JUMPDEST PUSH1 0x0 DUP3 ADD CALLDATALOAD PUSH8 0xFFFFFFFFFFFFFFFF DUP2 GT ISZERO PUSH2 0x111A JUMPI PUSH2 0x1119 PUSH2 0xED4 JUMP JUMPDEST JUMPDEST PUSH2 0x1126 DUP5 DUP3 DUP6 ADD PUSH2 0xFF1 JUMP JUMPDEST SWAP2 POP POP SWAP3 SWAP2 POP POP JUMP JUMPDEST PUSH1 0x0 DUP2 MLOAD SWAP1 POP SWAP2 SWAP1 POP JUMP JUMPDEST PUSH1 0x0 DUP3 DUP3 MSTORE PUSH1 0x20 DUP3 ADD SWAP1 POP SWAP3 SWAP2 POP POP JUMP JUMPDEST PUSH1 0x0 JUMPDEST DUP4 DUP2 LT ISZERO PUSH2 0x1169 JUMPI DUP1 DUP3 ADD MLOAD DUP2 DUP5 ADD MSTORE PUSH1 0x20 DUP2 ADD SWAP1 POP PUSH2 0x114E JUMP JUMPDEST DUP4 DUP2 GT ISZERO PUSH2 0x1178 JUMPI PUSH1 0x0 DUP5 DUP5 ADD MSTORE JUMPDEST POP POP POP POP JUMP JUMPDEST PUSH1 0x0 PUSH2 0x1189 DUP3 PUSH2 0x112F JUMP JUMPDEST PUSH2 0x1193 DUP2 DUP6 PUSH2 0x113A JUMP JUMPDEST SWAP4 POP PUSH2 0x11A3 DUP2 DUP6 PUSH1 0x20 DUP7 ADD PUSH2 0x114B JUMP JUMPDEST PUSH2 0x11AC DUP2 PUSH2 0xEE3 JUMP JUMPDEST DUP5 ADD SWAP2 POP POP SWAP3 SWAP2 POP POP JUMP JUMPDEST PUSH2 0x11C0 DUP2 PUSH2 0x101F JUMP JUMPDEST DUP3 MSTORE POP POP JUMP JUMPDEST PUSH1 0x0 PUSH1 0x80 DUP3 ADD SWAP1 POP DUP2 DUP2 SUB PUSH1 0x0 DUP4 ADD MSTORE PUSH2 0x11E0 DUP2 DUP8 PUSH2 0x117E JUMP JUMPDEST SWAP1 POP DUP2 DUP2 SUB PUSH1 0x20 DUP4 ADD MSTORE PUSH2 0x11F4 DUP2 DUP7 PUSH2 0x117E JUMP JUMPDEST SWAP1 POP PUSH2 0x1203 PUSH1 0x40 DUP4 ADD DUP6 PUSH2 0x11B7 JUMP JUMPDEST PUSH2 0x1210 PUSH1 0x60 DUP4 ADD DUP5 PUSH2 0x11B7 JUMP JUMPDEST SWAP6 SWAP5 POP POP POP POP POP JUMP JUMPDEST PUSH1 0x0 PUSH8 0xFFFFFFFFFFFFFFFF DUP3 GT ISZERO PUSH2 0x1234 JUMPI PUSH2 0x1233 PUSH2 0xEF4 JUMP JUMPDEST JUMPDEST PUSH1 0x20 DUP3 MUL SWAP1 POP PUSH1 0x20 DUP2 ADD SWAP1 POP SWAP2 SWAP1 POP JUMP JUMPDEST PUSH1 0x0 DUP1 REVERT JUMPDEST PUSH1 0x0 DUP2 SWAP1 POP SWAP2 SWAP1 POP JUMP JUMPDEST PUSH2 0x125D DUP2 PUSH2 0x124A JUMP JUMPDEST DUP2 EQ PUSH2 0x1268 JUMPI PUSH1 0x0 DUP1 REVERT JUMPDEST POP JUMP JUMPDEST PUSH1 0x0 DUP2 CALLDATALOAD SWAP1 POP PUSH2 0x127A DUP2 PUSH2 0x1254 JUMP JUMPDEST SWAP3 SWAP2 POP POP JUMP JUMPDEST PUSH1 0x0 PUSH2 0x1293 PUSH2 0x128E DUP5 PUSH2 0x1219 JUMP JUMPDEST PUSH2 0xF54 JUMP JUMPDEST SWAP1 POP DUP1 DUP4 DUP3 MSTORE PUSH1 0x20 DUP3 ADD SWAP1 POP PUSH1 0x20 DUP5 MUL DUP4 ADD DUP6 DUP2 GT ISZERO PUSH2 0x12B6 JUMPI PUSH2 0x12B5 PUSH2 0x1245 JUMP JUMPDEST JUMPDEST DUP4 JUMPDEST DUP2 DUP2 LT ISZERO PUSH2 0x12DF JUMPI DUP1 PUSH2 0x12CB DUP9 DUP3 PUSH2 0x126B JUMP JUMPDEST DUP5 MSTORE PUSH1 0x20 DUP5 ADD SWAP4 POP POP PUSH1 0x20 DUP2 ADD SWAP1 POP PUSH2 0x12B8 JUMP JUMPDEST POP POP POP SWAP4 SWAP3 POP POP POP JUMP JUMPDEST PUSH1 0x0 DUP3 PUSH1 0x1F DUP4 ADD SLT PUSH2 0x12FE JUMPI PUSH2 0x12FD PUSH2 0xED9 JUMP JUMPDEST JUMPDEST DUP2 CALLDATALOAD PUSH2 0x130E DUP5 DUP3 PUSH1 0x20 DUP7 ADD PUSH2 0x1280 JUMP JUMPDEST SWAP2 POP POP SWAP3 SWAP2 POP POP JUMP JUMPDEST PUSH1 0x0 DUP1 PUSH1 0x0 DUP1 PUSH1 0x0 PUSH1 0xA0 DUP7 DUP9 SUB SLT ISZERO PUSH2 0x1333 JUMPI PUSH2 0x1332 PUSH2 0xECF JUMP JUMPDEST JUMPDEST PUSH1 0x0 DUP7 ADD CALLDATALOAD PUSH8 0xFFFFFFFFFFFFFFFF DUP2 GT ISZERO PUSH2 0x1351 JUMPI PUSH2 0x1350 PUSH2 0xED4 JUMP JUMPDEST JUMPDEST PUSH2 0x135D DUP9 DUP3 DUP10 ADD PUSH2 0xFF1 JUMP JUMPDEST SWAP6 POP POP PUSH1 0x20 PUSH2 0x136E DUP9 DUP3 DUP10 ADD PUSH2 0x1046 JUMP JUMPDEST SWAP5 POP POP PUSH1 0x40 PUSH2 0x137F DUP9 DUP3 DUP10 ADD PUSH2 0x1046 JUMP JUMPDEST SWAP4 POP POP PUSH1 0x60 PUSH2 0x1390 DUP9 DUP3 DUP10 ADD PUSH2 0x1046 JUMP JUMPDEST SWAP3 POP POP PUSH1 0x80 DUP7 ADD CALLDATALOAD PUSH8 0xFFFFFFFFFFFFFFFF DUP2 GT ISZERO PUSH2 0x13B1 JUMPI PUSH2 0x13B0 PUSH2 0xED4 JUMP JUMPDEST JUMPDEST PUSH2 0x13BD DUP9 DUP3 DUP10 ADD PUSH2 0x12E9 JUMP JUMPDEST SWAP2 POP POP SWAP3 SWAP6 POP SWAP3 SWAP6 SWAP1 SWAP4 POP JUMP JUMPDEST PUSH1 0x0 DUP1 PUSH1 0x0 PUSH1 0x60 DUP5 DUP7 SUB SLT ISZERO PUSH2 0x13E3 JUMPI PUSH2 0x13E2 PUSH2 0xECF JUMP JUMPDEST JUMPDEST PUSH1 0x0 DUP5 ADD CALLDATALOAD PUSH8 0xFFFFFFFFFFFFFFFF DUP2 GT ISZERO PUSH2 0x1401 JUMPI PUSH2 0x1400 PUSH2 0xED4 JUMP JUMPDEST JUMPDEST PUSH2 0x140D DUP7 DUP3 DUP8 ADD PUSH2 0xFF1 JUMP JUMPDEST SWAP4 POP POP PUSH1 0x20 PUSH2 0x141E DUP7 DUP3 DUP8 ADD PUSH2 0x1046 JUMP JUMPDEST SWAP3 POP POP PUSH1 0x40 PUSH2 0x142F DUP7 DUP3 DUP8 ADD PUSH2 0x1046 JUMP JUMPDEST SWAP2 POP POP SWAP3 POP SWAP3 POP SWAP3 JUMP JUMPDEST PUSH1 0x0 DUP1 PUSH1 0x0 DUP1 PUSH1 0x80 DUP6 DUP8 SUB SLT ISZERO PUSH2 0x1453 JUMPI PUSH2 0x1452 PUSH2 0xECF JUMP JUMPDEST JUMPDEST PUSH1 0x0 DUP6 ADD CALLDATALOAD PUSH8 0xFFFFFFFFFFFFFFFF DUP2 GT ISZERO PUSH2 0x1471 JUMPI PUSH2 0x1470 PUSH2 0xED4 JUMP JUMPDEST JUMPDEST PUSH2 0x147D DUP8 DUP3 DUP9 ADD PUSH2 0xFF1 JUMP JUMPDEST SWAP5 POP POP PUSH1 0x20 PUSH2 0x148E DUP8 DUP3 DUP9 ADD PUSH2 0x1046 JUMP JUMPDEST SWAP4 POP POP PUSH1 0x40 PUSH2 0x149F DUP8 DUP3 DUP9 ADD PUSH2 0x1046 JUMP JUMPDEST SWAP3 POP POP PUSH1 0x60 PUSH2 0x14B0 DUP8 DUP3 DUP9 ADD PUSH2 0x1046 JUMP JUMPDEST SWAP2 POP POP SWAP3 SWAP6 SWAP2 SWAP5 POP SWAP3 POP JUMP JUMPDEST PUSH1 0x0 DUP2 MLOAD SWAP1 POP SWAP2 SWAP1 POP JUMP JUMPDEST PUSH1 0x0 DUP3 DUP3 MSTORE PUSH1 0x20 DUP3 ADD SWAP1 POP SWAP3 SWAP2 POP POP JUMP JUMPDEST PUSH1 0x0 DUP2 SWAP1 POP PUSH1 0x20 DUP3 ADD SWAP1 POP SWAP2 SWAP1 POP JUMP JUMPDEST PUSH2 0x14F1 DUP2 PUSH2 0x124A JUMP JUMPDEST DUP3 MSTORE POP POP JUMP JUMPDEST PUSH1 0x0 PUSH2 0x1503 DUP4 DUP4 PUSH2 0x14E8 JUMP JUMPDEST PUSH1 0x20 DUP4 ADD SWAP1 POP SWAP3 SWAP2 POP POP JUMP JUMPDEST PUSH1 0x0 PUSH1 0x20 DUP3 ADD SWAP1 POP SWAP2 SWAP1 POP JUMP JUMPDEST PUSH1 0x0 PUSH2 0x1527 DUP3 PUSH2 0x14BC JUMP JUMPDEST PUSH2 0x1531 DUP2 DUP6 PUSH2 0x14C7 JUMP JUMPDEST SWAP4 POP PUSH2 0x153C DUP4 PUSH2 0x14D8 JUMP JUMPDEST DUP1 PUSH1 0x0 JUMPDEST DUP4 DUP2 LT ISZERO PUSH2 0x156D JUMPI DUP2 MLOAD PUSH2 0x1554 DUP9 DUP3 PUSH2 0x14F7 JUMP JUMPDEST SWAP8 POP PUSH2 0x155F DUP4 PUSH2 0x150F JUMP JUMPDEST SWAP3 POP POP PUSH1 0x1 DUP2 ADD SWAP1 POP PUSH2 0x1540 JUMP JUMPDEST POP DUP6 SWAP4 POP POP POP POP SWAP3 SWAP2 POP POP JUMP JUMPDEST PUSH1 0x0 PUSH1 0x20 DUP3 ADD SWAP1 POP DUP2 DUP2 SUB PUSH1 0x0 DUP4 ADD MSTORE PUSH2 0x1594 DUP2 DUP5 PUSH2 0x151C JUMP JUMPDEST SWAP1 POP SWAP3 SWAP2 POP POP JUMP JUMPDEST PUSH32 0x4E487B7100000000000000000000000000000000000000000000000000000000 PUSH1 0x0 MSTORE PUSH1 0x32 PUSH1 0x4 MSTORE PUSH1 0x24 PUSH1 0x0 REVERT JUMPDEST PUSH32 0x4E487B7100000000000000000000000000000000000000000000000000000000 PUSH1 0x0 MSTORE PUSH1 0x22 PUSH1 0x4 MSTORE PUSH1 0x24 PUSH1 0x0 REVERT JUMPDEST PUSH1 0x0 PUSH1 0x2 DUP3 DIV SWAP1 POP PUSH1 0x1 DUP3 AND DUP1 PUSH2 0x1612 JUMPI PUSH1 0x7F DUP3 AND SWAP2 POP JUMPDEST PUSH1 0x20 DUP3 LT DUP2 SUB PUSH2 0x1625 JUMPI PUSH2 0x1624 PUSH2 0x15CB JUMP JUMPDEST JUMPDEST POP SWAP2 SWAP1 POP JUMP JUMPDEST PUSH32 0x4E487B7100000000000000000000000000000000000000000000000000000000 PUSH1 0x0 MSTORE PUSH1 0x11 PUSH1 0x4 MSTORE PUSH1 0x24 PUSH1 0x0 REVERT JUMPDEST PUSH1 0x0 DUP2 SWAP1 POP SWAP2 SWAP1 POP JUMP JUMPDEST PUSH1 0x0 PUSH2 0x166F DUP3 PUSH2 0x165A JUMP JUMPDEST SWAP2 POP PUSH32 0xFFFFFFFFFFFFFFFFFFFFFFFFFFFFFFFFFFFFFFFFFFFFFFFFFFFFFFFFFFFFFFFF DUP3 SUB PUSH2 0x16A1 JUMPI PUSH2 0x16A0 PUSH2 0x162B JUMP JUMPDEST JUMPDEST PUSH1 0x1 DUP3 ADD SWAP1 POP SWAP2 SWAP1 POP JUMP JUMPDEST PUSH1 0x0 DUP2 SWAP1 POP SWAP3 SWAP2 POP POP JUMP JUMPDEST PUSH1 0x0 PUSH2 0x16C2 DUP3 PUSH2 0x112F JUMP JUMPDEST PUSH2 0x16CC DUP2 DUP6 PUSH2 0x16AC JUMP JUMPDEST SWAP4 POP PUSH2 0x16DC DUP2 DUP6 PUSH1 0x20 DUP7 ADD PUSH2 0x114B JUMP JUMPDEST DUP1 DUP5 ADD SWAP2 POP POP SWAP3 SWAP2 POP POP JUMP JUMPDEST PUSH1 0x0 PUSH2 0x16F4 DUP3 DUP5 PUSH2 0x16B7 JUMP JUMPDEST SWAP2 POP DUP2 SWAP1 POP SWAP3 SWAP2 POP POP JUMP JUMPDEST PUSH1 0x0 PUSH2 0x170A DUP3 PUSH2 0x165A JUMP JUMPDEST SWAP2 POP PUSH2 0x1715 DUP4 PUSH2 0x165A JUMP JUMPDEST SWAP3 POP DUP3 DUP3 LT ISZERO PUSH2 0x1728 JUMPI PUSH2 0x1727 PUSH2 0x162B JUMP JUMPDEST JUMPDEST DUP3 DUP3 SUB SWAP1 POP SWAP3 SWAP2 POP POP JUMP JUMPDEST PUSH1 0x0 PUSH2 0x173E DUP3 PUSH2 0x101F JUMP JUMPDEST SWAP2 POP PUSH2 0x1749 DUP4 PUSH2 0x101F JUMP JUMPDEST SWAP3 POP DUP3 PUSH4 0xFFFFFFFF SUB DUP3 GT ISZERO PUSH2 0x1762 JUMPI PUSH2 0x1761 PUSH2 0x162B JUMP JUMPDEST JUMPDEST DUP3 DUP3 ADD SWAP1 POP SWAP3 SWAP2 POP POP JUMP JUMPDEST PUSH1 0x0 PUSH2 0x1778 DUP3 PUSH2 0x101F JUMP JUMPDEST SWAP2 POP PUSH2 0x1783 DUP4 PUSH2 0x101F JUMP JUMPDEST SWAP3 POP DUP3 DUP3 LT ISZERO PUSH2 0x1796 JUMPI PUSH2 0x1795 PUSH2 0x162B JUMP JUMPDEST JUMPDEST DUP3 DUP3 SUB SWAP1 POP SWAP3 SWAP2 POP POP JUMP INVALID LOG2 PUSH5 0x6970667358 0x22 SLT KECCAK256 0xEA 0xB2 PUSH9 0x32DF1ED0CB6CC4D223 SLT DUP14 RETURNDATACOPY REVERT 0xEC SSTORE MOD SWAP13 XOR SGT DUP11 STATICCALL 0xD9 EXP 0x2D 0xCE ADD RETURNDATACOPY 0xF9 TIMESTAMP PUSH5 0x736F6C6343 STOP ADDMOD 0xD STOP CALLER "
        },
        "methodIdentifiers": {
          "getFileArray(string,uint32,uint32,uint32)": "df5d4b40",
          "getFileInfo(string)": "0cc9c17b",
          "newFileArray(string,uint32,uint32)": "8f4d1ba6",
          "newFileTemplate(string,string,uint32)": "036948d6",
          "setFileArray(string,uint32,uint32,uint32,bytes32[])": "8ac3421d"
        }
      }
    }
  }
}